{
  "_format": "hh-sol-artifact-1",
  "contractName": "Raffle",
  "sourceName": "contracts/Raffle.sol",
  "abi": [
    {
      "inputs": [
        {
          "internalType": "address",
          "name": "vrfCoordinatorV2",
          "type": "address"
        },
        {
          "internalType": "uint64",
          "name": "subscriptionId",
          "type": "uint64"
        },
        {
          "internalType": "bytes32",
          "name": "gasLane",
          "type": "bytes32"
        },
        {
          "internalType": "uint256",
          "name": "interval",
          "type": "uint256"
        },
        {
          "internalType": "uint32",
          "name": "callbackGasLimit",
          "type": "uint32"
        },
        {
          "internalType": "uint256",
          "name": "entranceFee",
          "type": "uint256"
        }
      ],
      "stateMutability": "nonpayable",
      "type": "constructor"
    },
    {
      "inputs": [
        {
          "internalType": "address",
          "name": "have",
          "type": "address"
        },
        {
          "internalType": "address",
          "name": "want",
          "type": "address"
        }
      ],
      "name": "OnlyCoordinatorCanFulfill",
      "type": "error"
    },
    {
      "inputs": [],
      "name": "Raffle__NotEnoughEthEntered",
      "type": "error"
    },
    {
      "inputs": [],
      "name": "Raffle__NotOpen",
      "type": "error"
    },
    {
      "inputs": [],
      "name": "Raffle__TransferFailed",
      "type": "error"
    },
    {
      "inputs": [
        {
          "internalType": "uint256",
          "name": "currentBalance",
          "type": "uint256"
        },
        {
          "internalType": "uint256",
          "name": "numPlayers",
          "type": "uint256"
        },
        {
          "internalType": "uint256",
          "name": "raffleState",
          "type": "uint256"
        }
      ],
      "name": "Raffle__UpkeepNotNeeded",
      "type": "error"
    },
    {
      "anonymous": false,
      "inputs": [
        {
          "indexed": true,
          "internalType": "address",
          "name": "player",
          "type": "address"
        }
      ],
      "name": "RaffleEnter",
      "type": "event"
    },
    {
      "anonymous": false,
      "inputs": [
        {
          "indexed": true,
          "internalType": "uint256",
          "name": "requestId",
          "type": "uint256"
        }
      ],
      "name": "RequestedRaffleWinner",
      "type": "event"
    },
    {
      "anonymous": false,
      "inputs": [
        {
          "indexed": true,
          "internalType": "address",
          "name": "winner",
          "type": "address"
        }
      ],
      "name": "WinnerPicked",
      "type": "event"
    },
    {
      "inputs": [
        {
          "internalType": "bytes",
          "name": "",
          "type": "bytes"
        }
      ],
      "name": "checkUpkeep",
      "outputs": [
        {
          "internalType": "bool",
          "name": "upkeepNeeded",
          "type": "bool"
        },
        {
          "internalType": "bytes",
          "name": "",
          "type": "bytes"
        }
      ],
      "stateMutability": "view",
      "type": "function"
    },
    {
      "inputs": [],
      "name": "enterRaffle",
      "outputs": [],
      "stateMutability": "payable",
      "type": "function"
    },
    {
      "inputs": [],
      "name": "getEntranceFee",
      "outputs": [
        {
          "internalType": "uint256",
          "name": "",
          "type": "uint256"
        }
      ],
      "stateMutability": "view",
      "type": "function"
    },
    {
      "inputs": [],
      "name": "getLatestTimestamp",
      "outputs": [
        {
          "internalType": "uint256",
          "name": "",
          "type": "uint256"
        }
      ],
      "stateMutability": "view",
      "type": "function"
    },
    {
      "inputs": [],
      "name": "getNumWords",
      "outputs": [
        {
          "internalType": "uint256",
          "name": "",
          "type": "uint256"
        }
      ],
      "stateMutability": "pure",
      "type": "function"
    },
    {
      "inputs": [],
      "name": "getNumberOfPlayer",
      "outputs": [
        {
          "internalType": "uint256",
          "name": "",
          "type": "uint256"
        }
      ],
      "stateMutability": "view",
      "type": "function"
    },
    {
      "inputs": [
        {
          "internalType": "uint256",
          "name": "index",
          "type": "uint256"
        }
      ],
      "name": "getPlayerAt",
      "outputs": [
        {
          "internalType": "address",
          "name": "",
          "type": "address"
        }
      ],
      "stateMutability": "view",
      "type": "function"
    },
    {
      "inputs": [],
      "name": "getRaffleState",
      "outputs": [
        {
          "internalType": "enum Raffle.RaffleState",
          "name": "",
          "type": "uint8"
        }
      ],
      "stateMutability": "view",
      "type": "function"
    },
    {
      "inputs": [],
      "name": "getRecentWinner",
      "outputs": [
        {
          "internalType": "address",
          "name": "",
          "type": "address"
        }
      ],
      "stateMutability": "view",
      "type": "function"
    },
    {
      "inputs": [],
      "name": "getRequestConfirmations",
      "outputs": [
        {
          "internalType": "uint256",
          "name": "",
          "type": "uint256"
        }
      ],
      "stateMutability": "pure",
      "type": "function"
    },
    {
      "inputs": [
        {
          "internalType": "bytes",
          "name": "",
          "type": "bytes"
        }
      ],
      "name": "performUpkeep",
      "outputs": [],
      "stateMutability": "nonpayable",
      "type": "function"
    },
    {
      "inputs": [
        {
          "internalType": "uint256",
          "name": "requestId",
          "type": "uint256"
        },
        {
          "internalType": "uint256[]",
          "name": "randomWords",
          "type": "uint256[]"
        }
      ],
      "name": "rawFulfillRandomWords",
      "outputs": [],
      "stateMutability": "nonpayable",
      "type": "function"
    }
  ],
  "bytecode": "0x6101606040523480156200001257600080fd5b50604051620017a1380380620017a1833981810160405281019062000038919062000294565b858073ffffffffffffffffffffffffffffffffffffffff1660808173ffffffffffffffffffffffffffffffffffffffff1681525050508573ffffffffffffffffffffffffffffffffffffffff1660a08173ffffffffffffffffffffffffffffffffffffffff16815250508360e081815250508261014081815250508467ffffffffffffffff1660c08167ffffffffffffffff16815250508061012081815250506000600160146101000a81548160ff0219169083600181111562000101576200010062000330565b5b0217905550426002819055508163ffffffff166101008163ffffffff16815250505050505050506200035f565b600080fd5b600073ffffffffffffffffffffffffffffffffffffffff82169050919050565b6000620001608262000133565b9050919050565b620001728162000153565b81146200017e57600080fd5b50565b600081519050620001928162000167565b92915050565b600067ffffffffffffffff82169050919050565b620001b78162000198565b8114620001c357600080fd5b50565b600081519050620001d781620001ac565b92915050565b6000819050919050565b620001f281620001dd565b8114620001fe57600080fd5b50565b6000815190506200021281620001e7565b92915050565b6000819050919050565b6200022d8162000218565b81146200023957600080fd5b50565b6000815190506200024d8162000222565b92915050565b600063ffffffff82169050919050565b6200026e8162000253565b81146200027a57600080fd5b50565b6000815190506200028e8162000263565b92915050565b60008060008060008060c08789031215620002b457620002b36200012e565b5b6000620002c489828a0162000181565b9650506020620002d789828a01620001c6565b9550506040620002ea89828a0162000201565b9450506060620002fd89828a016200023c565b93505060806200031089828a016200027d565b92505060a06200032389828a016200023c565b9150509295509295509295565b7f4e487b7100000000000000000000000000000000000000000000000000000000600052602160045260246000fd5b60805160a05160c05160e0516101005161012051610140516113d9620003c860003960006107a50152600081816102b401526103b1015260006106550152600061061101526000610632015260006105d50152600081816102f1015261034501526113d96000f3fe6080604052600436106100a75760003560e01c806353a2c19a1161006457806353a2c19a146101895780635f1b0fd8146101b45780636e04ff0d146101df578063bd4d025c1461021d578063ceb73f4514610248578063f43b52cb14610285576100a7565b806309bc33a7146100ac578063115cbaf5146100d75780631fe543e3146101025780632cfcc5391461012b5780634585e33b14610135578063473f1ddc1461015e575b600080fd5b3480156100b857600080fd5b506100c16102b0565b6040516100ce9190610b5a565b60405180910390f35b3480156100e357600080fd5b506100ec6102d8565b6040516100f99190610bec565b60405180910390f35b34801561010e57600080fd5b5061012960048036038101906101249190610da0565b6102ef565b005b6101336103af565b005b34801561014157600080fd5b5061015c60048036038101906101579190610e57565b61051e565b005b34801561016a57600080fd5b5061017361071d565b6040516101809190610ee5565b60405180910390f35b34801561019557600080fd5b5061019e610747565b6040516101ab9190610b5a565b60405180910390f35b3480156101c057600080fd5b506101c9610756565b6040516101d69190610b5a565b60405180910390f35b3480156101eb57600080fd5b5061020660048036038101906102019190610fb5565b610763565b6040516102149291906110a1565b60405180910390f35b34801561022957600080fd5b5061023261084d565b60405161023f9190610b5a565b60405180910390f35b34801561025457600080fd5b5061026f600480360381019061026a91906110d1565b610859565b60405161027c9190610ee5565b60405180910390f35b34801561029157600080fd5b5061029a6108a0565b6040516102a79190610b5a565b60405180910390f35b60007f0000000000000000000000000000000000000000000000000000000000000000905090565b6000600160149054906101000a900460ff16905090565b7f000000000000000000000000000000000000000000000000000000000000000073ffffffffffffffffffffffffffffffffffffffff163373ffffffffffffffffffffffffffffffffffffffff16146103a157337f00000000000000000000000000000000000000000000000000000000000000006040517f1cf993f40000000000000000000000000000000000000000000000000000000081526004016103989291906110fe565b60405180910390fd5b6103ab82826108aa565b5050565b7f0000000000000000000000000000000000000000000000000000000000000000341015610409576040517f066d781f00000000000000000000000000000000000000000000000000000000815260040160405180910390fd5b6000600181111561041d5761041c610b75565b5b600160149054906101000a900460ff16600181111561043f5761043e610b75565b5b14610476576040517f1425571c00000000000000000000000000000000000000000000000000000000815260040160405180910390fd5b6000339080600181540180825580915050600190039060005260206000200160009091909190916101000a81548173ffffffffffffffffffffffffffffffffffffffff021916908373ffffffffffffffffffffffffffffffffffffffff1602179055503373ffffffffffffffffffffffffffffffffffffffff167f0805e1d667bddb8a95f0f09880cf94f403fb596ce79928d9f29b74203ba284d460405160405180910390a2565b600061053860405180602001604052806000815250610763565b509050806105a75747600080549050600160149054906101000a900460ff16600181111561056957610568610b75565b5b6040517f584327aa00000000000000000000000000000000000000000000000000000000815260040161059e93929190611127565b60405180910390fd5b60018060146101000a81548160ff021916908360018111156105cc576105cb610b75565b5b021790555060007f000000000000000000000000000000000000000000000000000000000000000073ffffffffffffffffffffffffffffffffffffffff16635d3b1d307f00000000000000000000000000000000000000000000000000000000000000007f000000000000000000000000000000000000000000000000000000000000000060037f000000000000000000000000000000000000000000000000000000000000000060016040518663ffffffff1660e01b81526004016106969594939291906111d6565b602060405180830381600087803b1580156106b057600080fd5b505af11580156106c4573d6000803e3d6000fd5b505050506040513d601f19601f820116820180604052508101906106e8919061123e565b9050807fcd6e45c8998311cab7e9d4385596cac867e20a0587194b954fa3a731c93ce78b60405160405180910390a250505050565b6000600160009054906101000a900473ffffffffffffffffffffffffffffffffffffffff16905090565b6000600163ffffffff16905090565b6000600361ffff16905090565b60006060600080600181111561077c5761077b610b75565b5b600160149054906101000a900460ff16600181111561079e5761079d610b75565b5b14905060007f0000000000000000000000000000000000000000000000000000000000000000600254426107d2919061129a565b1190506000806000805490501190506000804711905060008480156107f45750835b80156107fd5750825b80156108065750815b9050806040518060400160405280600381526020017f3078300000000000000000000000000000000000000000000000000000000000815250965096505050505050915091565b60008080549050905090565b600080828154811061086e5761086d6112ce565b5b9060005260206000200160009054906101000a900473ffffffffffffffffffffffffffffffffffffffff169050919050565b6000600254905090565b60008080549050826000815181106108c5576108c46112ce565b5b60200260200101516108d7919061132c565b905060008082815481106108ee576108ed6112ce565b5b9060005260206000200160009054906101000a900473ffffffffffffffffffffffffffffffffffffffff169050600067ffffffffffffffff81111561093657610935610c5d565b5b6040519080825280602002602001820160405280156109645781602001602082028036833780820191505090505b506000908051906020019061097a929190610a9a565b50426002819055506000600160146101000a81548160ff021916908360018111156109a8576109a7610b75565b5b021790555060008173ffffffffffffffffffffffffffffffffffffffff16476040516109d39061138e565b60006040518083038185875af1925050503d8060008114610a10576040519150601f19603f3d011682016040523d82523d6000602084013e610a15565b606091505b5050905080610a50576040517fa1d04b3900000000000000000000000000000000000000000000000000000000815260040160405180910390fd5b8173ffffffffffffffffffffffffffffffffffffffff167f5b690ec4a06fe979403046eaeea5b3ce38524683c3001f662c8b5a829632f7df60405160405180910390a25050505050565b828054828255906000526020600020908101928215610b13579160200282015b82811115610b125782518260006101000a81548173ffffffffffffffffffffffffffffffffffffffff021916908373ffffffffffffffffffffffffffffffffffffffff16021790555091602001919060010190610aba565b5b509050610b209190610b24565b5090565b5b80821115610b3d576000816000905550600101610b25565b5090565b6000819050919050565b610b5481610b41565b82525050565b6000602082019050610b6f6000830184610b4b565b92915050565b7f4e487b7100000000000000000000000000000000000000000000000000000000600052602160045260246000fd5b60028110610bb557610bb4610b75565b5b50565b6000819050610bc682610ba4565b919050565b6000610bd682610bb8565b9050919050565b610be681610bcb565b82525050565b6000602082019050610c016000830184610bdd565b92915050565b6000604051905090565b600080fd5b600080fd5b610c2481610b41565b8114610c2f57600080fd5b50565b600081359050610c4181610c1b565b92915050565b600080fd5b6000601f19601f8301169050919050565b7f4e487b7100000000000000000000000000000000000000000000000000000000600052604160045260246000fd5b610c9582610c4c565b810181811067ffffffffffffffff82111715610cb457610cb3610c5d565b5b80604052505050565b6000610cc7610c07565b9050610cd38282610c8c565b919050565b600067ffffffffffffffff821115610cf357610cf2610c5d565b5b602082029050602081019050919050565b600080fd5b6000610d1c610d1784610cd8565b610cbd565b90508083825260208201905060208402830185811115610d3f57610d3e610d04565b5b835b81811015610d685780610d548882610c32565b845260208401935050602081019050610d41565b5050509392505050565b600082601f830112610d8757610d86610c47565b5b8135610d97848260208601610d09565b91505092915050565b60008060408385031215610db757610db6610c11565b5b6000610dc585828601610c32565b925050602083013567ffffffffffffffff811115610de657610de5610c16565b5b610df285828601610d72565b9150509250929050565b600080fd5b60008083601f840112610e1757610e16610c47565b5b8235905067ffffffffffffffff811115610e3457610e33610dfc565b5b602083019150836001820283011115610e5057610e4f610d04565b5b9250929050565b60008060208385031215610e6e57610e6d610c11565b5b600083013567ffffffffffffffff811115610e8c57610e8b610c16565b5b610e9885828601610e01565b92509250509250929050565b600073ffffffffffffffffffffffffffffffffffffffff82169050919050565b6000610ecf82610ea4565b9050919050565b610edf81610ec4565b82525050565b6000602082019050610efa6000830184610ed6565b92915050565b600080fd5b600067ffffffffffffffff821115610f2057610f1f610c5d565b5b610f2982610c4c565b9050602081019050919050565b82818337600083830152505050565b6000610f58610f5384610f05565b610cbd565b905082815260208101848484011115610f7457610f73610f00565b5b610f7f848285610f36565b509392505050565b600082601f830112610f9c57610f9b610c47565b5b8135610fac848260208601610f45565b91505092915050565b600060208284031215610fcb57610fca610c11565b5b600082013567ffffffffffffffff811115610fe957610fe8610c16565b5b610ff584828501610f87565b91505092915050565b60008115159050919050565b61101381610ffe565b82525050565b600081519050919050565b600082825260208201905092915050565b60005b83811015611053578082015181840152602081019050611038565b83811115611062576000848401525b50505050565b600061107382611019565b61107d8185611024565b935061108d818560208601611035565b61109681610c4c565b840191505092915050565b60006040820190506110b6600083018561100a565b81810360208301526110c88184611068565b90509392505050565b6000602082840312156110e7576110e6610c11565b5b60006110f584828501610c32565b91505092915050565b60006040820190506111136000830185610ed6565b6111206020830184610ed6565b9392505050565b600060608201905061113c6000830186610b4b565b6111496020830185610b4b565b6111566040830184610b4b565b949350505050565b6000819050919050565b6111718161115e565b82525050565b600067ffffffffffffffff82169050919050565b61119481611177565b82525050565b600061ffff82169050919050565b6111b18161119a565b82525050565b600063ffffffff82169050919050565b6111d0816111b7565b82525050565b600060a0820190506111eb6000830188611168565b6111f8602083018761118b565b61120560408301866111a8565b61121260608301856111c7565b61121f60808301846111c7565b9695505050505050565b60008151905061123881610c1b565b92915050565b60006020828403121561125457611253610c11565b5b600061126284828501611229565b91505092915050565b7f4e487b7100000000000000000000000000000000000000000000000000000000600052601160045260246000fd5b60006112a582610b41565b91506112b083610b41565b9250828210156112c3576112c261126b565b5b828203905092915050565b7f4e487b7100000000000000000000000000000000000000000000000000000000600052603260045260246000fd5b7f4e487b7100000000000000000000000000000000000000000000000000000000600052601260045260246000fd5b600061133782610b41565b915061134283610b41565b925082611352576113516112fd565b5b828206905092915050565b600081905092915050565b50565b600061137860008361135d565b915061138382611368565b600082019050919050565b60006113998261136b565b915081905091905056fea264697066735822122043f1428e270cdd471f2039f4c25a9493b73da882fe3595e80e4a1a6cdea06e3664736f6c63430008090033",
  "linkReferences": {},
  "deployedLinkReferences": {}
}